:10000000401A002051AD0100659100006991000087
:10001000A70A02020002000004180FAC30656E014E
:1000200000000000000000000000000000000000D0
:1000300000000000E4460300000000000000000093
:100040000000000000000000FFFFFFFFFFFFFFFFB8
:10005000FFFFFFFFFFFFFFFFFFFFFFFFFFFFFFFFB0
:1000600000E00F000000000000001000FFFFFFFF95
:10007000FFFFFFFF1C000000000000000000000068
:10008000184D00201441002014410020144100208C
:10009000401A0020CC7F03001CF40200E010002076
:0C00A000C010002000001000184D0020CF
:10020000401A002051AD0100659100006991000085
:10021000719100006D910000759100004DAD0100DD
:100220004DAD01004DAD01004DAD01004DAD0100E2
:10023000799100004DAD01004DAD01004DAD0100C3
:1002400019AB0000FD98010065940000EC910000DE
:10025000B1930100699901000999010021990100F8
:100260000199010049A200001DA300002DC100005A
:1002700089120100EC910000EC910000098000005F
:10028000EC910000EC91000041A30000EC91000013
:10029000EC910000EC910000EC910000EC9100006A
:1002A000EC910000EC910000EC910000EC9100005A
:1002B0006D9901000599010099A80000AD99010010
:1002C000EC91000015550100EC910000EC9100004C
:1002D000EC910000EC910000EC910000EC9100002A
:1002E000EC910000EC910000EC910000EC9100001A
:1002F000EC910000EC910000EC910000EC9100000A
:0C030000EC910000EC9100004DAD0100FC
:10030C00F8B500BFF8BC08BC9E467047F8B500BFF6
:10031C00F8BC08BC9E46704710B5054C237833B921
:10032C00044B13B10448AFF300800123237010BDBC
:10033C004C20002000000000B879030008B5034BE6
:10034C001BB103490348AFF3008008BD0000000057
:10035C0050200020B8790300154B002B08BF134B1D
:10036C009D46A3F5803A00218B460F461348144A4C
:10037C00121A2FF03AF80F4B002B00D098470E4B67
:10038C00002B00D098470020002104000D000D48E0
:10039C00002802D00C48AFF300802EF0F7FF2000AD
:1003AC00290011F00BFA2EF0DDFF00BF0000080051
:1003BC00401A002000000000000000004C2000202B
:1003CC00144100200000000000000000F0B585B0D2
:1003DC00234B00251D7000F089FF0228074632D1FF
:1003EC0003F0D6F81F4B1E780124062E047114D18D
:1003FC001D49204604F050FD1C4B3A463146204620
:10040C0003F03CF803F074F8194A1A49034601202A
:10041C0005B0BDE8F04004F03FBD072EF2D105F069
:10042C0087F815490646204604F036FDF6B214232B
:10043C000193CDE902550096104B2A46082120461F
:10044C0003F01CF8DEE70FF0FFFC0D49024601201B
:10045C0004F022FD0B4B01221A7005B0F0BD00BF59
:10046C00582E00206920002060F602001D1A03009F
:10047C00B6F60200924D030085F602003917030010
:10048C00C7F602006820002010B50D4C0023237025
:10049C000C4B1B7873B100F029FF02280ED00A49CF
:1004AC00012004F0F9FC20464FF47A61BDE81040BD
:1004BC0022F0A2B9BDE8104000F018BF10BD00BF7B
:1004CC00602E00206820002093F8020010B5074B26
:1004DC00002201201A700DF099FD054A05490346CA
:1004EC00BDE81040012004F0D7BC00BF502E002006
:1004FC005A13030072F802000020704721B9034B15
:10050C001870034822F06CB9704700BF69200020B6
:10051C00582E00200B4602460149012004F0BCBCB9
:10052C003DF702000B4602460149012004F0B4BC21
:10053C0090F702000B4602460149012004F0ACBCC6
:10054C00EDF602001FB504460B4602461049012089
:10055C0004F0A2FC04AB4FF0887243F8042D042283
:10056C00CDE9003206210B4B0A22082002F086FF4F
:10057C002046002103F012F80021084602F0D2FFB9
:10058C00012322460449184604F086FC04B010BD31
:10059C00EDF60200D9130300E0F7020013B5044690
:1005AC0002460C49012004F077FC00940A4B0B4ADC
:1005BC000B49012004F070FC24B10A4B00221A7084
:1005CC0002B010BD084840F6B83102B0BDE810408A
:1005DC0022F012B90EF8020046F802004FF80200A1
:1005EC0054F8020068200020502E002007B500238C
:1005FC000093074A074B0849012004F04DFC0748BB
:10060C0040F6B83103B05DF804EB22F0F5B800BF4A
:10061C0068F8020046F8020054F80200502E002040
:10062C0007B501200090054B054A064904F034FC3F
:10063C00054B00221A7003B05DF804FB46F802006B
:10064C0068F8020054F802006820002008B5034640
:10065C00044A0549012004F01FFC044B00221A70C7
:10066C0008BD00BF46F8020072F8020068200020A6
:10067C0008B5012003F0DCFF044B00221A700120A6
:10068C000EF048FCBDE8084003F0C1BF702E0020FE
:10069C0008B5022003F0CCFF044B00221A70022094
:1006AC000EF038FCBDE8084003F0B1BF682E002006
:1006BC0008B5012022F0C0F9024822F033F9024BB0
:1006CC00187008BDA8F80200782E002008B503F0B9
:1006DC00B9FD012805D0034B1878BDE8084022F07D
:1006EC0005B908BD782E002010B50C1E03D122F0E0
:1006FC0077F8002010BD02DB22F07EF8F9E702202B
:10070C00F8E7B1F5000F02D20902FFF7EDBF0220A6
:10071C00704700002DE9F0419846154B154F1B888A
:10072C0000264FF00C0CF4B29C4202D30220BDE820
:10073C00F0810CFB04F57C197D5D854205D1658843
:10074C008D4202D12579954201D00136EBE701F0BB
:10075C009DFA0028EAD04146A068FFF7C5FF0028A3
:10076C00E4D19DF8183063719DF81C30A371DEE75D
:10077C00601A0020481A002013B59DF81040CDE9EE
:10078C00003413460022FFF7C5FF02B010BD07B5B9
:10079C0000230093FFF7F0FF03B05DF804FB0000AB
:1007AC00F0B50E4B0E4E1F8800254FF00C0CEBB223
:1007BC00BB4201D30220F0BD0CFB03F3F418F35C35
:1007CC00834205D163888B4202D12379934201D0B5
:1007DC000135ECE7A36800201870ECE7601A0020E4
:1007EC00481A00200022FFF7DBBF00002DE9F04F74
:1007FC0093B01E46022E4FF0FF03804689461446E6
:10080C001C9D9DF874A08DF81E3040F2BA802B7898
:10081C005A072BD5042E40F2B48095F804B05D4AEB
:10082C00002302EBC301DFB20979FF2907D00133A2
:10083C000A2BF6D1209B002B40F0A780FF2700232A
:10084C0008AA0DF11F0120798DF81F3002F0E6FB8C
:10085C0078B1BDF82C3023809DF81F0003F0D0FE3A
:10086C008DF81D00C8B113B0BDE8F08F95F802B03B
:10087C00D5E7207901F026FAFF28059000F0838057
:10088C00207903F0D5FE8DF81D000028EBD1059BD7
:10089C00414800EB031043882380618823884FF67E
:1008AC00FF72B8F1000F08BF4A46CDE90012584656
:1008BC005246002105F000FE18B1E38843F02003F6
:1008CC00E380209B0F950DF11D010DA8CDE90D3492
:1008DC00ADF84090ADF842608DF844808DF845A09D
:1008EC0002F0D4FB10B19DF81D00BCE7284605F0C2
:1008FC0001FDA01D05F0ECFC22464946404605F0E2
:10090C00FDFE80B2B0422CD39DF87C300393BDF831
:10091C00783002930DF11E03CDE900532246F3B259
:10092C004946404600F06FFE8DF81D00209A9DF858
:10093C001D30D2B15BBB9DF81E20FF2A08D0092FB9
:10094C0006D8144B03EBC7010A71209A43F83720E1
:10095C009DF81D3013B9112002F042FB03F057FE35
:10096C00C1E774238DF81D30E0E7BA2BF0D1E38892
:10097C00DB06EDD5002301208DF81D3003F068FC5B
:10098C00E6E701206FE7A3206DE7B4206BE7BA2BF5
:10099C00EDD0E3E76C2000203C2F002010B50023A5
:1009AC00044AFF241946D018047199500833502B6F
:1009BC00F9D110BD6C20002010B586B0089C0881C0
:1009CC0004940024CDE902440124CDE900341346FB
:1009DC000A4601460320FFF709FF06B010BD13B508
:1009EC0000240094FFF7E8FF02B010BD2DE9FF4191
:1009FC000F469046054688B381B37AB30026694604
:100A0C00F0B219F087FF044630B99DF80030032B83
:100A1C0006D001360A2EF2D1204604B0BDE8F08192
:100A2C009DF801202B799A42F3D1BDF802206B88F6
:100A3C009A42EED19DF806309DF8050000EB03209C
:100A4C0080B29DF804306B71288143463A462946A2
:100A5C00FFF7C5FF0028DCD00446DDE70224DBE706
:100A6C0010B586B0089C04940024CDE902440124FE
:100A7C00CDE9003413460A4601460620FFF7B6FEC0
:100A8C0006B010BD13B500240094FFF7E9FF02B0C7
:100A9C0010BDF0B58BB0022805460E4614461F4615
:100AAC000AD106A9F0B219F035FF98B99DF81930A2
:100ABC0023719DF81C306371119B04930022109BD1
:100ACC000192CDE90222009322463B46314628464C
:100ADC00FFF78CFE0BB0F0BD13B500240194049C01
:100AEC000094FFF7D6FF02B010BD2DE9F0438BB098
:100AFC0006460F4690469946002506A9E8B219F01D
:100B0C0009FF044630B99DF81830012B06D0013589
:100B1C000A2DF2D120460BB0BDE8F0839DF81920C8
:100B2C0033799A42F3D1BDF81A2073889A42EED1E8
:100B3C009DF81C307371CDE90309CDE90100CDF8A6
:100B4C0000803B463246A9B20220FFF74FFE002838
:100B5C00DDD00446DEE7F0B587B0074614460E46F6
:100B6C001622002168461D4603F094FCADF80C706B
:100B7C00ADF80A40F6B1082231460DF1010003F040
:100B8C002DFCBDF8143043F00203ADF814300023F3
:100B9C008DF80030BDF83430ADF80E300F9ABDF83A
:100BAC003030BDF83810ADF8103068460EF012FD3C
:100BBC0007B0F0BD1DB1ADF812500C23E8E74FF6AD
:100BCC00FB739C428CBF082400248DF80040E1E7A5
:100BDC0007B5094A0346108831B9084A084903B0D9
:100BEC005DF804EB04F074B90091064A064904F070
:100BFC006FF903B05DF804FB5E2100206031030047
:100C0C0039FC02000432030040FC02007FB50546AB
:100C1C000E4623F0E5F92A46044603460C49042007
:100C2C0004F03AF98CB986B101238DF80E30032308
:100C3C000093224603AB36214FF6FC708DF80C4026
:100C4C008DF80D5007F08CF90446204604B070BDA9
:100C5C0022FC020010B5FF280C4604D104200449E4
:100C6C0004F01AF9FE202146BDE81040FFF7CEBF74
:100C7C00E5FD0200F8B51F460B8806460D461446E6
:100C8C00002B63D14A88110448BF6378304908208F
:100C9C0004F002F96B8848F20402934232D00FD868
:100CAC0048F2010293423ED048F20202934242D0F3
:100CBC00132B0ED1A2786378264903EB022223E092
:100CCC0048F20602934223D032D348F220029342D8
:100CDC0026D03B4622462946304600F0E8FD40B976
:100CEC006A8848F221039A4203D16178304602F0B7
:100CFC00A3F96B88B3F5004F02D9082002F0D3F9A1
:100D0C00012024E0144A1549082004F0C5F8E0E756
:100D1C00134A1249082004F0DBF822791149F3E751
:100D2C0062781149F0E71149082004F0B5F8D0E7D2
:100D3C0022790F49E8E70F4A0849082004F0C8F85F
:100D4C00A27863780C4903EB0222DDE70020F8BDA2
:100D5C004DFC0200C3FC020072FC020079FC020094
:100D6C008AFC020090FC02009EFC0200DAFC0200ED
:100D7C00F4FC020016FD02001BFD02002DE9F047F9
:100D8C0088B00C4692469946BDF84050119E80465C
:100D9C0028F03AF8628823881D49009207462A46B3
:100DAC00022004F079F88DF80880CDE90346ADF8FF
:100DBC001450ADF816708DF818A08DF8199000F03D
:100DCC0097FA8DF81A0000F095FA8DF81B001CF0BC
:100DDC006CFE8DF81C0002A802F056F9A8B92B463F
:100DEC0032462146384604F0D3FE70B92B463246C3
:100DFC0021463846FFF73EFF38B9CDE900702B4647
:100E0C0032464146204605F07DFB08B0BDE8F08730
:100E1C005BFB02002DE9F04F85B0804689461446F5
:100E2C00BDF838600F9D9DF840B01F46002B2CD0AC
:100E3C00434A4449042004F04BF82388002B70D01B
:100E4C0040F2091293426ED03F4A4049B3F5827F7B
:100E5C0018BF0A466188009101963D49042004F0B0
:100E6C0037F823886BB1022E0BD92B7839493A4AC3
:100E7C0013F0010F18BF0A46AB783849042004F070
:100E8C0027F83749042004F007F8364A00231146A6
:100E9C0002EBC3000079584547D152F833A0002328
:100EAC0001EBC3021079584545D1FF201071002287
:100EBC0041F8332047B9238833B9B4F90230002BF9
:100ECC0002DB082002F08CF8012002F0ECF89DB156
:100EDC002878C30710D510F0040004D03246012145
:100EEC00284603F04EFBCDE90170009533462246AF
:100EFC004946404601F0C8F8BAF1000F06D0CDE9DA
:100F0C0000573346224649464046D0473346224690
:100F1C0049464046CDE90E5705B0BDE8F04F02F00A
:100F2C0087B8114A96E7114A94E701330A2BAFD1DF
:100F3C004FF0000AB3E701330A2BB1D1BAE700BF77
:100F4C00A7FB0200AFFB020095FB0200FCFB0200BA
:100F5C00B9FB020098FB0200A0FB0200E8FB0200B8
:100F6C001D1A03006C2000208EFB020092FB020075
:100F7C0013B59628044632D02BD891283AD0942811
:100F8C002DD090283FD100F0ADF9234B0090234A8F
:100F9C002349042003F080FFBC2C26D121490420D6
:100FAC0003F07AFF02F078F802F077F802F075F8A7
:100FBC00204611F00DFC20460EF0D8FE2046FFF71F
:100FCC009BFA30B31849042002B0BDE8104003F07E
:100FDC0063BFAF2807D8AB280AD2982813D1134B7C
:100FEC000E4A134909E0BC28CCE72AF06DF9DDE77D
:100FFC009128F4D1084B094A0E49042003F04CFF08
:10100C0005F0A7F8D4E722460B49022003F044FF71
:10101C00CEE702B010BD00BF2CFD020035FD020072
:10102C003CFD020049FD020099FD020070FD02002A
:10103C0078FD020067FD020081FD020013B50F4C24
:10104C00002003F0DDFA23686BB101A800F038FB37
:10105C0048B923681A789DF804309A4203D0012AC3
:10106C0007D1022B05D1032301A8ADF8043023F0DE
:10107C00C1FE03F0CCFA02B010BD00BF5821002015
:10108C0010B5044603F0C1FA204602F00EF8BDE894
:10109C00104003F0BCBA000037B50D4B1B68054679
:1010AC009BB11C780289C37A0A490092012C0A4A26
:1010BC004FF0010008BF022403F0EEFE2946204643
:1010CC0003B0BDE8304023F031BE702003B030BD1A
:1010DC0058210020C9FD02004FF8020010B504464B
:1010EC0000F0F8F8631E04F10F02002113F8010F51
:1010FC00FF2808BF19709342F8D10023237410BD48
:10110C007FB504AB03E9030000239DF80D509DF857
:10111C000E6016491C46D8B201EBC0025268EAB9FF
:10112C009DF80C1000919DF80B309DF80A20104989
:10113C00042003F0CDFE25B12A460E49042003F00D
:10114C00C7FE0D4ABDF808300C49002C18BF2246CA
:10115C00042004B0BDE8704003F09EBE11F83000CE
:10116C000133B04208BF1446D5E700BF20FE020091
:10117C00FFFB020010FC0200FBFB020014FC02004F
:10118C00FFF7BCB910B50BF0C2FC012300224FF4E1
:10119C00E13120200FF0EEFD07F0D6FD044608F0FB
:1011AC00C7FA224603461249012003F075FE07F0E8
:1011BC00D1FD044608F0CAFA224603460D49012027
:1011CC0003F06AFE07F0C0FD012303FA00F040F2C1
:1011DC00A17318420BD0084C207807F0C1FD207881
:1011EC0007F07AFE2078BDE8104007F07BBF10BDF9
:1011FC0061FF020077FF0200A91A002037B5002218
:10120C00114601A801F011FF00284DD121F006F97B
:10121C000346002843D02649264A012003F03CFE11
:10122C00AA21254807F076FB03F0E0F9FFF7B6FB9F
:10123C0000F062FB00F026FB0221084604F090F956
:10124C00FFF7FCFE02F066FA1C4B1D4C1D4D41F2E3
:10125C0002021A801C4A522313801C4A4FF400408D
:10126C0013801DF053FA08F031F921F081F902F0E6
:10127C00E9FF012801D000F00CFB0FF0D1FDFFF7C6
:10128C0025FA2021002002F077FC28B122462946BD
:10129C004FF6FF7003F01CFE03F0BBF9E3E70C49BB
:1012AC00022003F0F9FDBFE7019803B030BD00BF89
:1012BC00BCFE0200A7FB0200CDFE0200DE1F0020D8
:1012CC004FFF02005DFF0200E01F0020E21F002024
:1012DC0045FF0200024910237F22098808F03CB820
:1012EC005842030021F012BA21F01CBA20F0D8BFEA
:1012FC0028F08AB81FB5684627F094FDC8B902A932
:10130C0029F030FD082269460DEB020003F0C9F804
:10131C0010B9002004B010BD02A9012029F022FD53
:10132C00082269460DEB020003F0BBF890B90120CE
:10133C00F0E727F069FD4FF6FF739842044609D099
:10134C00002029F027FD8442E3D0012029F022FD62
:10135C008442ECD0FF20DDE738B5054603F068F990
:10136C00044698B94FF4A8532A460949082003F0BB
:10137C0093FD4FF4A851284606F064FD054902463A
:10138C000446082003F088FD03F041F9204638BDDF
:10139C0097FF0200A3FF02007FB5054603F035F965
:1013AC0021F0B4F940B16B88B3F5006F04D1681D1E
:1013BC0001F040FE044616E0284601F072FED8B952
:1013CC000446E6B26946304619F0A4FA80B99DF895
:1013DC0000306BB92946304619F01EFB0028E9D0C5
:1013EC0075280BD08C2403F012F9204604B070BD84
:1013FC0001340A2CE5D1F5E78D24F4E78B24F2E7D0
:10140C0038B5054603F001F9284601F048FE98B9B5
:10141C00284619F0CFFA68B175280CBF8B248824A4
:10142C0023462A460549082003F036FD03F0EFF861
:10143C00204638BD0446F3E78D24F7E7ADFF0200E4
:10144C0037B502A9FF2301F8013D044601F0E2FD86
:10145C0018B19DF8070003B030BD094B03EB041322
:10146C001D7B1CF024FB854201D0FF20F3E72046B6
:10147C0000F08AFA0028F8D0204600F0E5FCEAE7F4
:10148C003C2F00202DE9F04107460D4601F0C4FD2C
:10149C000646F0B9384600F015FCFF2819D00E4C62
:1014AC0004EB001494F80C801CF001FB804510D167
:1014BC0063882B80A3886B80A3792B71012138461C
:1014CC0000F0C8FC31466871384600F0C3FC0126B8
:1014DC00A8713046BDE8F0813C2F0020F8B50446D9
:1014EC000E46154600F0EEFBFF2802D14FF6FF70BA
:1014FC00F8BD0B4B03EB0010077B1CF0D8FA8742AE
:10150C00F4D146B901222946204600F0C9FC002836
:10151C00ECD00088ECE7012EE8D10022F3E700BF05
:10152C003C2F002010B5044603F06FF82046FFF75F
:10153C001FFDBDE8104003F06AB8000037B50C4B36
:10154C001B681C5C94420D460AD900922346094A3A
:10155C000949042003F0A0FC0024204603B030BD50
:10156C000022014600922346284621F097FCF4E71E
:10157C00181B0020A7FB0200A4FE0200F0B599B0D6
:10158C00144603AD0F46064603F03FF820465222A0
:10159C002946FFF7D3FF84B28CB10DF10A0027F076
:1015AC0023FC0DF10B0027F027FC9DF90B309DF867
:1015BC000A20CDE9004539463046FFF7DFFB03F042
:1015CC0026F819B0F0BD2DE9F0419AB01D4605ACD6
:1015DC000F469046064603F018F85222214628463C
:1015EC00FFF7ACFF50B180B20090CDE901459DF8FA
:1015FC008030424639463046FFF70CFC03F007F8C2
:10160C001AB0BDE8F0812DE9F74307460E460A985B
:10161C00BDF830809DF834901946154621F066FCD3
:10162C00FF2804463AD00B9B1870062F34D8DFE8FD
:10163C0007F0040404121929220003462A463146F5
:10164C00384627F047FE0546204621F0F3FA284697
:10165C0003B0BDE8F0830C2203461146284627F060
:10166C000BFEF0E7EA7A0346CDE9008911462846DD
:10167C0027F0C4FDE7E703460C222946304627F045
:10168C0063FDE0E70190EB7A00934A462B46314626
:10169C00404627F07DFDD6E70225D5E71825D6E78D
:1016AC000822014902F09ABEFD3F002010B5044605
:1016BC00084620F009FE2046BDE8104022F00EBE80
:1016CC0022F00CBE05207047002070470A2070479E
:1016DC00014B1878704700BF301B00204B2070471F
:1016EC00024B18685968FFF70BBD00BF82780300E6
:1016FC0013B5044602F089FF0DF1060027F074FBC8
:10170C000DF1070027F078FB9DF907209DF80610D6
:10171C0020460CF071FD30B99DF907209DF806109C
:10172C0020460EF0B1FD02F072FF02B010BD38B5CC
:10173C0004460D4602F069FF294620460CF0A6FE31
:10174C0018B9294620460EF0AFFDBDE8384002F02E
:10175C005EBF38B504460D4602F057FF29462046B9
:10176C000CF0B4FD18B9294620460EF07BFDBDE8FF
:10177C00384002F04CBF38B504460D4602F045FF28
:10178C00294620460CF0CAFD18B92946204601F01E
:10179C0093FCBDE8384002F03ABF704700F08BB8BC
:1017AC00704700002DE9F341224B01931646044685
:1017BC0040B13AB1002301AA9D5C8D4233D0013374
:1017CC00042BF9D1022002B0BDE8F081E35C93FA5E
:1017DC00A3F30146180E02F027FD434603F101085E
:1017EC00DBB2BB42F2DBC2B292FAA2F2C0F30F231D
:1017FC0093FAA3F3100E1B0E03EB00236219DB43C9
:10180C009BB212F8020CD9B2884211D112F8012CF9
:10181C00B2EB132F0CD132462146284602B0BDE85C
:10182C00F0411BF0D5B900234FF6FF708F1ED5E7A2
:10183C00BD20C8E7080A0E122DE9F04186B0984683
:10184C000F4B1546064603A80F461C7819F0F0FB03
:10185C0015F0FD0F12D030B9BDF80C309B0702D536
:10186C00032D08BF0324304600942B4642463946CC
:10187C0001F020FC204606B0BDE8F0810324F2E71D
:10188C00BC20002008B504F035FCBDE8084001F090
:10189C00CBBB08B501F0CBFB0DF09EFA0DF0F4FBC1
:1018AC00BDE8084004F054BC704701F0EBBB01F0FC
:1018BC00EFBB0020704738B504460D460FF0B0FF63
:1018CC0029462046BDE8384001F0F7BB0CF056BE67
:1018DC000CF024BF10B5074A0123312B194601D156
:1018EC00002006E00233D41814F8034C8442F4D1DF
:1018FC00505C10BDC3FF0200F0B587B040F201236D
:10190C00194A1A49ADF80030194B1A4D0220CDE98D
:10191C0004230870002301221749ADF80430ADF8F8
:10192C000820ADF80C300DF1100E0DF1140C01AFB8
:10193C0002AE03AC10461DF803200A703EF81320CB
:10194C004A803CF813208A80DA5D8A71F25C487315
:10195C0005EBC2028A601A5D0A7310310BB107B035
:10196C00F0BD0123E7E700BF04010401BD20002006
:10197C0002001008980303003C2F0020014B18783C
:10198C00704700BFBD200020034B03EB0010407BD1
:10199C0000F00100704700BF3C2F002041380328A5
:1019AC008CBF002001207047413801288CBF0020DB
:1019BC0001207047433801288CBF0020012070475C
:1019CC0000207047002070470388B3F57C4F01D38B
:1019DC00FFF7F8BF0846FFF7F3BF10B504884A8835
:1019EC00A2420DD1037B0C79234009D0B2F57C4F78
:1019FC0008D3FFF7E7FF0B891B1A5842584110BD5B
:101A0C000020FCE70120FAE738B50D88D488A54200
:101A1C000AD10388B3F57C4F08D2FFF7D5FF1389A1
:101A2C001B1A5842584138BD0020FCE70120FAE748
:101A3C002DE9F04F8BB001939DF850300593724B0C
:101A4C00DFF8D4911B7804914FF0000A80461546BC
:101A5C0008935746089A5FFA8AF39A4201D886206F
:101A6C0063E099F800300293D9F808300393029A96
:101A7C0098F80030934240F0BF8099F80D30D807A9
:101A8C0009D5039B1B7907934FF0000B079A5FFA5C
:101A9C008BF39A4204D80AF1010A09F11009D9E72B
:101AAC00039B1E68142303FB0B6641463046FFF76D
:101ABC0094FF002800F09C8033890693002306993C
:101ACC009AB2914202D80BF1010BDFE774680993CB
:101ADC000C2202FB0344214642463046FFF794FF9A
:101AEC002279099B00287BD0049B03B11C609106D2
:101AFC001ED4464809E01A79920642BFD8783F189E
:101B0C00BFB20C339C42F6D84148059B074493B1B5
:101B1C0021463046FFF758FF2388B8F802100246DA
:101B2C00029801F062FA60BB7E200BB0BDE8F08F2A
:101B3C000027384BE6E7002D35D021463046FFF71D
:101B4C0043FF2388B8F802100246029801F04BFAC2
:101B5C000028E9D0DFF8C49028462379DB0615D598
:101B6C0021463046FFF730FF98F80060B8F80210B5
:101B7C001495034622463046CC460BB0BDE8F04FD8
:101B8C0060473846DFF898902F46E6E7019AA3782D
:101B9C005AB9E278A3F14101012908D8013AD2B22D
:101BAC00394604F0D7FD0020BFE7019AF2E7433B2A
:101BBC00012B05D8023A92B2394604F0E5FDF2E762
:101BCC00059B2BB9019B1BB1E37801998B4218D86B
:101BDC00394617B902F05EFCE5E702F0FFFBE2E7DD
:101BEC0012F0300F02BFE0783F18BFB2013366E746
:101BFC0070890744BFB266E7039BD8880744BFB21D
:101C0C0049E7892091E700BFBD2000205C2F002010
:101C1C007C2E00201C0003003C2F00201130000003
:101C2C00153000002DE9F0410779064600254FF0EC
:101C3C001408E8B2874201D800241AE008FB05F02A
:101C4C00D6F800C00CEB00043CF8000088421AD116
:101C5C0032B1802A10D194F90CC0BCF1000F12DA09
:101C6C00B0F57C4F05D32046FFF7ACFE984200D070
:101C7C004BB92046BDE8F081402A04D194F80CC041
:101C8C001CF0400FECD10135D3E7000030B50B4B05
:101C9C000B4A1C780023D9B2A14201D3002030BDDD
:101CAC001946013302EB031515F8105C8542F2D18D
:101CBC0002EB0112507B00F00100F0E7BD20002088
:101CCC003C2F002070B50A4B0A491D780023DAB26C
:101CDC00AA4202D3FF22104670BD1C016618645C38
:101CEC00844202D1747BE407F5D40133EFE700BFE3
:101CFC00BD2000203C2F00202DE9F0410D4616465A
:101D0C001F46FFF7DFFFFF280AD0074C04EB00103B
:101D1C003B46324629468068BDE8F041FFF782BF5A
:101D2C000020BDE8F08100BF3C2F002008B5134611
:101D3C000022FFF7E1FF003018BF012008BD08B5F5
:101D4C0013464022FFF7D8FF003018BF012008BD12
:101D5C0008B513468022FFF7CFFF003018BF0120D3
:101D6C0008BD08B500234022FFF7C6FF003018BF9E
:101D7C00012008BD08B500238022FFF7BDFF00300D
:101D8C0018BF012008BD000030B5094B094C19786B
:101D9C000023DAB28A4201D3FF2206E0013304EBBE
:101DAC00031515F8105C8542F3D1104630BD00BF09
:101DBC00BD2000203C2F00202DE9F0410D46164699
:101DCC001F46FFF7E1FF054C04EB00103B46324683
:101DDC0029468068BDE8F041FFF724BF3C2F002066
:101DEC002DE9F84F0746884691469A46FFF784FF3F
:101DFC00E0B10F4BDFF83CB01E7800252C46EBB25F
:101E0C00B34202D32046BDE8F88F01350BEB051326
:101E1C0013F8100C8742F5D053464A464146FFF75B
:101E2C00CBFF002818BF0134E4B2E8E7FF24E9E750
:101E3C00BD2000203C2F002013464022FFF7D0BFCE
:101E4C000022FFF7F9BF00000001014B185C70473E
:101E5C003C2F002070B50D46FFF734FFFF2818D03B
:101E6C000E4B03EB001082689AB1002311791846CF
:101E7C001426DCB2A14200D870BD146806FB0344E2
:101E8C00247B45B114F0400F1CBF0130C0B20133AC
:101E9C00EFE70020F0E714F0800FF5E73C2F00206F
:101EAC002DE9F0410F469046FFF70CFFFF280BD0B1
:101EBC00104B03EB00100023856829791C464FF06A
:101ECC00140CDAB2914202D80020BDE8F0812868E7
:101EDC000CFB0300067BB8F1000F08D016F0400F86
:101EEC0003D0BC42F1D00134E4B20133E9E716F07F
:101EFC00800FF5E73C2F00202DE9F04F89B0074605
:101F0C001BF0D3FD3D4B1B780293824600244FF00F
:101F1C000C0B029B9C422ED2FF2F05D03846FFF7AC
:101F2C00D1FEFF28044626D0FF2F354E4FEA04136E
:101F3C0060D1F218127B52455CD00134E4B2E8E770
:101F4C001B68142202FB05352B89B3F5967F01D94A
:101F5C0007F0BCFA4FF000092A891FFA89F39A425C
:101F6C000CD808F10108B3681A795FFA88F5AA420F
:101F7C00E6D8FF2FE1D009B0BDE8F08F1FFA89F148
:101F8C0068680BFB01F14218137913F0100F29D17B
:101F9C0096F800C08DF814C0B5F800C0ADF816C0A6
:101FAC0013F0400F0CBF4FF0400C4FF0800C8DF82D
:101FBC0018C0415AADF81A10284611460393FFF782
:101FCC0003FD039BADF81C005B07D1780DD50229EE
:101FDC00926800D91268012300930023194605A8C2
:101FEC00FFF726FD09F10109B6E7022994BF083273
:101FFC009268F0E74FF000081E44B4E7BD200020C3
:10200C003C2F00200021FFF777BF10B504460121BB
:10201C00FFF772FF2046BDE81040FFF745BC704744
:10202C0010B5047B14EA010310D0002201238B426B
:10203C0003D3036953F8220010BD1C4218BF0132B0
:10204C004FEA430318BFD2B2DBB2F0E71846F3E70E
:10205C00F8B516461F469DF81820BDF81C300546ED
:10206C00FFF74AFE78B10421FFF7DAFF044650B1BE
:10207C00284602F0DDFA3A4631462846A047BDE82C
:10208C00F84002F0C4BAF8BD2DE9F74F1F4681465F
:10209C008A460C9D9DF834B0BDF83830144612B306
:1020AC000DB307B392F804802A78618812F0080FF8
:1020BC0014BF402280224046FFF71EFE98B1082133
:1020CC00FFF7AEFF064670B1404602F0B1FACDE91B
:1020DC00005B3B46224651464846B04703B0BDE83C
:1020EC00F04F02F094BA03B0BDE8F08FF8B5BDF82C
:1020FC00185017461A462B460446FFF7FDFDE0B173
:10210C0075B90221FFF78CFF0546B0B1204602F0ED
:10211C008FFA39462046A847BDE8F84002F077BA56
:10212C001021FFF77DFF064638B1204602F080FAF9
:10213C002A4639462046B047EEE7F8BD73B5BDF8E0
:10214C00184016461A4623460546FFF7D5FDB8B18A
:10215C00C4B92021FFF764FF044670B1284602F091
:10216C0067FA099B00939DF81C209DF8203031469E
:10217C002846A047044602F04AFA204602B070BD39
:10218C008624FAE70024F8E72DE9F0418668044636
:10219C00007802F04DFA002514273279EBB29A42FE
:1021AC0003D8BDE8F04102F032BA7B4332682078A4
:1021BC00D15A02EB030800F01CFF01214046FFF747
:1021CC002FFF034608B1207898470135E5E700005A
:1021DC0070B5084D084E00242B78E0B2834200D82D
:1021EC0070BD06EB0010437BDB0701D5FFF7CCFF7E
:1021FC000134F1E7BD2000203C2F00202DE9F041F7
:10220C001E4B06461E480C4619780023DAB28A4249
:10221C0003D300242046BDE8F0815A1C00EB0215C4
:10222C0015F8105CB54201D01346EFE700EB031034
:10223C00437B03F001022CB143F00103437342B121
:10224C000124E7E74473002AFAD005464FF014083E
:10225C000DE0FFF799FFDDE71B6808FB04F41A1982
:10226C00195B127B3046D209FEF79AFA3C46AB68F2
:10227C001A79671CE4B2A242EED8E1E7BD20002037
:10228C003C2F0020002070472DE9F74F0193BDF83B
:10229C0030A09DF838B04C7D70B394B3012C18BFAE
:1022AC0004249DF83C70DFF8888000263546BFB2C8
:1022BC0036F80800904218D108EB060090F803E0BD
:1022CC001EEA040F11D090F80290D9450DD31EF0E0
:1022DC00100F91F80FC016D0BCF1000F05D0FFF70E
:1022EC00D1FFB1F810C0844510D00436E42EDFD1F4
:1022FC00012003B0BDE8F08F002C14BF0424082487
:10230C00CFE70224CDE7BCF1000FEED1AF420CD0E9
:10231C00AA450AD9019B0D9803F8059000880D9BDE
:10232C00013001351880ADB2DFE70020E1E700BFD6
:10233C00B40203002DE9F04F89B0BDF848401D46AA
:10234C009DF850300193934623462A4607460E4685
:10235C00FFF7D2FC8DF81470ADF816608DF818509C
:10236C00ADF81AB0ADF81C40814618B9012009B07F
:10237C00BDE8F08F05A9FFF730FB0028F6D09DF8DB
:10238C004C3000259BB22E462F462C46029336E04D
:10239C000C231FFA85F8B9F8002003FB08F8D9F8CC
:1023AC000430B2F57C4F03EB080A1AD333F808005B
:1023BC0058452ED3029BA3422DD902F0B7F89AF8B8
:1023CC00020002F09FF8019B43B19AF8043013F01D
:1023DC00010F0CBF0520072002F094F80134A4B2C1
:1023EC0019E033F80820ADF81A20514605AA4846E2
:1023FC000393FFF709FB039B0028D7D10135B9F8EC
:10240C000820ABB29A42C3D83C44A31B5842584153
:10241C00ADE70137BFB20136B6B2EFE72DE9F04FA9
:10242C008FB098469DF8703006930023BDF86090ED
:10243C008DF82C00ADF82E10ADF832200093054627
:10244C000E46174608A91A460BA80893199C9DF826
:10245C0068B09DF86CA08DF83080ADF83490FFF723
:10246C00E7FA089B002B00F09880BAF1000F07D117
:10247C009A785A4540F094801A79D10740F19380AC
:10248C001A79520735D59A685168926809910A925F
:10249C00987804F0F5F9089B059093F803A0BAF12D
:1024AC00020F17D803465246214609A804F08DF9AD
:1024BC00059B0790524621460AA804F086F9079B13
:1024CC00012B01D0013014D14FF0870A50460FB0C8
:1024DC00BDE8F08F059B09985246214604F075F92A
:1024EC000128F1D0059B0A985246214604F06DF95B
:1024FC00E8E7069B002B59D1089B0394DB78CDF8B9
:10250C000090CDE901B33A4643463146284600F0E7
:10251C00B5FD82460028D9D1089B0394DB78CDF811
:10252C000090CDE901B33A46434631462846FFF7C1
:10253C0005FE82460028C9D101230093069B224642
:10254C0019460BA8FFF774FA82460028BED1089BE7
:10255C00324629462046FFF762FD43463A4631464D
:10256C002846CDE901B4CDF8009000F09DFD089B04
:10257C000394DB78CDF80090CDE901B33A4643469D
:10258C003146284600F079FDCDF8009043463A4696
:10259C0031462846FFF7AAFD98E74FF0860A95E7E3
:1025AC004FF08D0A92E74FF0880A8FE74FF0000A40
:1025BC008CE72DE9F04786B00F9D9DF84060BDF883
:1025CC0038400094CDE901560746884691469A4614
:1025DC0000F007FD98B102280ED84FF000030493C9
:1025EC0008BF0123CDE90263CDE9004553464A46B5
:1025FC0041463846FFF712FF06B0BDE8F0870120D0
:10260C00FAE730B587B000240125CDE903549DF8D5
:10261C002C5002950A9DCDE90045FFF7FFFE07B04F
:10262C0030BD30B587B000240125CDE903549DF8A9
:10263C0028500094CDE901354023FFF7EFFE07B099
:10264C0030BD10B586B04FF0010C0024CDE9034C21
:10265C009DF828400294099C0194BDF820400094F8
:10266C00FFF7DCFE06B010BD30B587B08DF810302A
:10267C000025BDF828308DF80C00ADF80E10ADF823
:10268C001220ADF814300095BDF830300B9A0D9C2B
:10269C00029502A903A8FFF7CBF918B914B1029B54
:1026AC009B78237007B030BD1FB5089C03949DF830
:1026BC001C400294069C019400240094FFF7D4FF64
:1026CC0004B010BD30B585B09DF820500024CDE984
:1026DC000135039400944023FFF7C6FF05B030BDCD
:1026EC002DE9F04F99B0DFF8CCB04FF00008FFF7B0
:1026FC0045F95FFA88F5A84202D819B0BDE8F08F09
:10270C002D010BEB05034FF0000904930BEB0503B4
:10271C005FFA89F49B681A79A24202D808F1010881
:10272C00E5E71B68142202FB043400262289B3B2AD
:10273C009A4202D809F10109E8E70C231FFA86FA3C
:10274C0003FB0AFA6368059303EB0A0706F0BEFE67
:10275C0039462046FFF738F9049B218893F800C0CE
:10276C00059B33F80A203B794FF0000E13F0400F15
:10277C000DF11C0A4FF04103CDE9023ECDE9000AF0
:10278C0014BF802340236046FFF76EFF862806D0D7
:10279C00B878FFF709F920B1504601F017FF013660
:1027AC00C4E7B878FFF706F90028F8D0504601F0D6
:1027BC0012FFF4E73C2F0020F0B597B0BDF8747011
:1027CC00042F164648D90DF11304039441240294A6
:1027DC0005ADBDF8704000940195FFF745FF044628
:1027EC00A0BB9DF81300A0F14103012B21D8284672
:1027FC0001F0ECFE0130C4B2E31CBB422CDA3046D3
:10280C0001F094FE154E002001F07CFE9DF81300A3
:10281C0001F078FE33881A19512A1DDC1048A4B235
:10282C0022461844294601F0D9FD308804443480EE
:10283C0012E0A0F14303012B04D8284601F0CBFE93
:10284C000230D8E7FFF746F80446D5E7304601F0EA
:10285C006DFE204601F056FE17B0F0BDB42F0020DF
:10286C00C42F002038B5C37B05460BB1832038BD7F
:10287C00C47C2CB905F01AFC20B9EB7B002BF5D1EC
:10288C008120F4E72046F2E738B5C37B05460BB14F
:10289C00832038BDC47C6CB9017D82898B1C9A4223
:1028AC000AD3806801F06DFE0BF034FC30B9EB7B81
:1028BC00002BEDD18120ECE78020EAE72046E8E709
:1028CC0010B5C37B04460BB1832010BDC37C1BB178
:1028DC00012B10D08120F8E7017D82898B1C9A4254
:1028EC000CD3806801F04DFE0CF02AFB40B9E37B61
:1028FC00002BE9D1EEE70CF045FBF7E78020E4E78D
:10290C000020E2E7F8B5C37B04460BB18320F8BD89
:10291C00C37C052B29D8DFE803F0032A35414C4F43
:10292C00057D8289AB1C9A4201D28020EFE7ADB2C3
:10293C002946806801F025FE0646A068A789023565
:10294C00284401F043FE284401308742EDD3294648
:10295C00A289A06801F01CFE014630460CF002F87A
:10296C00002848D1E37B002BD0D18120CFE7017D1B
:10297C0082898B1C9A42D8D3806801F002FE0CF03D
:10298C0011F8EDE7037D81895A1C9142CDD3826801
:10299C00591C1144D05C0CF035F8E1E7017D8289BB
:1029AC008B1C9A42C1D3806801F0EBFD0CF0ACF8A3
:1029BC00D6E70CF005F9D3E7057D8289AB1C9A426A
:1029CC00B3D3ADB22946806801F0DBFD0646A068A2
:1029DC00A7890235284401F0F9FD284401308742CB
:1029EC00A3D32946A289A06801F0D2FD0146304646
:1029FC000CF02EF9B4E7002089E72DE9F34790F8A5
:102A0C000FA00446BAF1000F40F03A81C37C042BAE
:102A1C0000F0C6800AD8012B67D047D3022B00F0F8
:102A2C009D80032B00F0AD80812045E0402B00F011
:102A3C00CD8023D8062BF7D1037D8289591C8A427D
:102A4C0039D39DB2A91C8A4205F1010733D3881CE6
:102A5C00824230D3A068C65CC75D01F092FD02468D
:102A6C00002E40F0B080A1682B1D0535CB5C0D44C9
:102A7C000095394630460EF031F92DE0412B00F02F
:102A8C00B980422BD0D1037D8289191D8A4212D381
:102A9C009DB28068691CC65C01F073FD0335A368A8
:102AAC0001465A5D30460FF0F7FE15E0037D828932
:102ABC00191D8A4203D2802002B0BDE8F0879DB276
:102ACC008068691CC65C01F05CFD0335A368014697
:102ADC005A5D30460EF0E6F8002840F0D380E37BD8
:102AEC00002B14BF83208120E6E7037D8289591CCB
:102AFC008A42E0D39DB2691C881C8242DBD3A06859
:102B0C00C65C01F03EFDA289291D8A42074605F1EB
:102B1C000303D0D3A06810F80380DEB901F031FDB7
:102B2C0006352946A2898146A06801F031FD82460E
:102B3C00A068284401F04AFD01300544A06810FA51
:102B4C0085F5CDE900A54B464246394630460EF098
:102B5C00FFF8C1E74FF6FF795546F2E7037D82890E
:102B6C00191D8A42A7D39DB28068691CC65C01F00E
:102B7C0008FD0335A36801465A5D30460EF09CF8FB
:102B8C00AAE7017D8289CB1C9A4294D38068455C6C
:102B9C00013101F0F6FC014628460EF093F89BE754
:102BAC00037D8289191D8A4285D39DB28068691C78
:102BBC00C65C01F0E6FC0335A36801465A5D30465D
:102BCC000EF086F888E7FF23002551E7037D828904
:102BDC00191D8A42FFF46FAF9DB28068691CC65CF8
:102BEC0001F0CFFC0335A36801465A5D30460FF067
:102BFC0037FE71E7037D8289591C8A42FFF45BAF73
:102C0C009DB2691C881C8242FFF455AFA068C65C5B
:102C1C0001F0B7FCA289291D8A42074605F103037E
:102C2C00FFF449AF881C8242FFF445AFA06810F84E
:102C3C00038001F0A6FC8146A068B4F80CA0063510
:102C4C00284401F0C3FC284401308245FFF433AF23
:102C5C00A289A068294601F09BFC8246A068284402
:102C6C0001F0B4FC01300544A06810FA85F5CDE9FB
:102C7C0000A54B464246394630460FF0FBFD2BE78C
:102C8C00832019E7002017E72DE9F743C37B04469F
:102C9C00002B40F0A880C37C062B00F2A680DFE856
:102CAC0003F0044A5A6A75859600057D8289AB1C2F
:102CBC009A4203D2802003B0BDE8F083ADB229461E
:102CCC00806801F05EFCA289E91C8A42064605F187
:102CDC000203EFD3881C8242ECD3A068C75C01F0DE
:102CEC0050FC8046A068B4F80C900535284401F0DF
:102CFC006DFC284401308145DCD32946A289A068AB
:102D0C0001F046FC8146A068284401F05FFC0130CC
:102D1C000544A06810FA85F500954B4642463946A5
:102D2C0030460DF0F9FE002861D1E37B002B14BF77
:102D3C0083208120BFE7057D8289EB1C9A42B9D3A1
:102D4C00ADB22946806801F01CFC0235A368595DC0
:102D5C000DF056FFE7E7057D8289EB1C9A42A9D35B
:102D6C00ADB22946806801F00CFC0235A368595DB0
:102D7C000DF07AFBD7E7017D82898B1C9A4299D39F
:102D8C00806801F0FEFB0DF0DDFBCCE7057D828950
:102D9C00EB1C9A428ED3ADB22946806801F0F1FB50
:102DAC000235A368595D0DF01FFDBCE7057D8289D6
:102DBC00EB1C9A42FFF47EAFADB22946806801F05D
:102DCC00E0FB0235A368595D0DF06CFDABE7017DAE
:102DDC0082898B1C9A42FFF46DAF806801F0D1FBA5
:102DEC000DF01AFC9FE7832065E7812063E7002044
:102DFC0061E710B5C37B04460BB1832010BDC37CC7
:102E0C00012B0BD003D3022B0BD08120F6E70DF056
:102E1C0067F948B9E37B002BEFD1F6E70DF070F9B9
:102E2C00F7E70DF07DF9F4E70020E7E72DE9F7432C
:102E3C00C37B04461BB1832003B0BDE8F083C37C85
:102E4C00412B33D0422B42D0402B2DD1037D828994
:102E5C0003F110018A424BD39DB2806805F1080141
:102E6C00C61801F08EFB05F10A030746A068A2897B
:102E7C0010F8038005F10B0101F083FB05F10D0146
:102E8C008146A289A06801F07CFB0F35A3685B5DCD
:102E9C004246CDE9000339464B4630460FF002FD61
:102EAC0040BBE37B002BC6D18120C5E7057D828921
:102EBC00EB1C9A421CD3AAB28068961C511CD31CE2
:102ECC000344825D415C405D0FF014FDE8E7057D35
:102EDC008289EB1C9A420BD3AAB28068961C511CB7
:102EEC00D31C0344825D415C405D0FF041FDD7E78C
:102EFC008020A1E700209FE738B5C37B002B437DE2
:102F0C0014BF8325C325012B04462ED10368028AE6
:102F1C0059885879FEF71CFF38B323685B88062B59
:102F2C000ED005D8032B11D0052B14D0284638BD54
:102F3C00B3F5407F04D0B3F5805F11D0082BF5D1E9
:102F4C00E37B002B14BF83258125EFE72046BDE8EA
:102F5C003840FFF799BC2046BDE83840FFF74DBD1F
:102F6C002046BDE83840FFF761BF637D002BDDD103
:102F7C002368228A59885879FEF7E1FE0028D5D0BB
:102F8C0023685B88062BD1D801A252F823F000BF2E
:102F9C00B92F0000392F0000392F0000C32F00007B
:102FAC00CD2F0000D72F0000E12F00002046BDE8F8
:102FBC003840FFF757BC2046BDE83840FFF780BCCF
:102FCC002046BDE83840FFF79DBC2046BDE83840A0
:102FDC00FFF75ABE2046BDE83840FFF70ABF00BFD6
:102FEC007047012070470120704701207047B520C1
:102FFC0070477047002070470020704700207047D2
:10300C00002070470120704701207047B5207047A1
:10301C000020704700207047002070470020704748
:10302C00704700207047704770470020704770470A
:10303C00002070478420704770477047704701200C
:10304C007047704770470020704770477047704753
:10305C007047012070470020704700207047000027
:10306C00034B1B681878012808BF0220704700BF6B
:10307C0058210020704770477047704700207047F8
:10308C0000207047002070470020704700207047D8
:10309C0000207047002070477047B5207047002013
:1030AC0070470020704770477047704770477047F3
:1030BC00B520704770477047704770470122052153
:1030CC00104603F029BD04220521012003F024BD84
:1030DC0003220521012003F01FBD0222052101203E
:1030EC0003F01ABD05221146012003F015BD06227E
:1030FC000521012003F010BD41220521012003F020
:10310C000BBD40220521012003F006BD4222052102
:10311C00012003F001BD00220521012003F0FCBCBD
:10312C0002220621012003F0F7BC422206210120D5
:10313C0003F0F2BC41220621012003F0EDBC012278
:10314C000621104603F0E8BC40220621012003F0C2
:10315C00E3BC00220621012003F0DEBC032208217F
:10316C00012003F0D9BC02220821012003F0D4BCB9
:10317C0007220821012003F0CFBC062208210120E0
:10318C0003F0CABC04220821012003F0C5BC0522AF
:10319C000821012003F0C0BC00220821012003F00B
:1031AC00BBBC01220821104603F0B6BC402203210F
:1031BC00012003F0B1BC01220321104603F0ACBC8A
:1031CC0000220321012003F0A7BC022203210120CD
:1031DC0003F0A2BC47224FF44071012003F09CBCC9
:1031EC0005224FF44071012003F096BC02224FF4EB
:1031FC004071012003F090BC4C224FF4407101202F
:10320C0003F08ABC09224FF44071012003F084BC06
:10321C0003224FF44071012003F07EBC06224FF4D0
:10322C004071012003F078BC00224FF44071012062
:10323C0003F072BC0A224FF44071012003F06CBC05
:10324C0007224FF44071012003F066BC04224FF4B6
:10325C004071012003F060BC01224FF44071104614
:10326C0003F05ABC4B224FF44071012003F054BCC4
:10327C0008224FF44071012003F04EBC44224FF45D
:10328C004071012003F048BC42224FF440710120F0
:10329C0003F042BC43224FF44071012003F03CBCCC
:1032AC0040224FF44071012003F036BC41224FF410
:1032BC004071012003F030BC01220021092003F0F1
:1032CC002BBC00002DE9F84F022905468A4602D98D
:1032DC0063B1042908D85B49022001F0DDFD4FF0F1
:1032EC00000B5846BDE8F88F42F004020C9C2A7083
:1032FC00002B3ED06B701B0AAB70032702F0CCFF87
:10330C0007F1020BE85501379DF82830EB554FF0CB
:10331C0000095FFA89F30B9AD65C002EE1D0732E6C
:10332C0050D8A6F14C01C9B2162904F1040827683B
:10333C0029D8454B23FA01F1C94311F001012CD1D5
:10334C0060684C2E04F1080884B214D14FF6FF715A
:10335C0020468C4214BF022100210BEB04020A44CC
:10336C0092455EDA621839493346022001F094FD29
:10337C00B5E70127C2E7532E0DD1C0B2B0F1FF0162
:10338C0018BF0121E9E76C2E07D1384601F023F96B
:10339C00023084B200210846DFE7732E04D1384690
:1033AC0001F014F90130F4E7A6F13004E2B2092A75
:1033BC0001D8A4B2EEE7A6F14102062A0AD8A6F17A
:1033CC003704F6E7752E0BD0762E10D0782E10D051
:1033DC00772E10D032461E49022001F05DFD7EE7AB
:1033EC00012104F10408206800242746B5E70221D6
:1033FC00F7E70321F5E70421F3E70CF1010E013A9D
:10340C0005F80C00D2B2000A1FFA8EFC002AF4D187
:10341C008B441FFA8BFB84B137B9334622460D49D6
:10342C00A3E7DC460A46F1E705EB0B0022463946DA
:10343C0000F0D4FFA3441FFA8BFB09F101094446A9
:10344C0067E700BF391903008100400077190300BA
:10345C005E190300AA19030010B5044C206004483F
:10346C00018004490A60044A136010BDC820002082
:10347C00CC200020C4200020C020002008B430B58F
:10348C0086B009AB0C4653F8045B0D4905930988CB
:10349C000092CDE9015302460A4800230068FFF769
:1034AC0011FF094B1B681880084B1B684FF48A529C
:1034BC005C80DA8006B0BDE8304001B0704700BFD8
:1034CC00CC200020C8200020C4200020C0200020D8
:1034DC00044B054A196812680988034603480068BA
:1034EC00FDF703BBC4200020C8200020C020002012
:1034FC000020FFF7EDBF000007B5074B1B681B88CA
:10350C000192064A12680092054A1268FDF7C1FA48
:10351C0003B05DF804FB00BFC4200020C8200020CD
:10352C00C02000200022FFF7E7BF000007B5064BC4
:10353C001B681A880091054B05491B680968FDF743
:10354C008FFA03B05DF804FBC4200020C8200020D3
:10355C00C02000200021FFF7E9BF00001FB5094C77
:10356C0024680394084C246824880294BDF81840FD
:10357C000194064C246864880094FDF7ECFA04B0BE
:10358C0010BD00BFC8200020C4200020C020002097
:10359C00014B1868704700BFC0200020024B1B680D
:1035AC0018715971704700BFC0200020F8B50D4646
:1035BC008C680A6826490646202006F0CCFB6B680E
:1035CC007BB92449202006F0C6FB20200DF010FC0E
:1035DC002149202006F0D4FB2020BDE8F8400DF056
:1035EC0007BC002EF1D01D4D1D4E1E4F013C14F892
:1035FC00013F23B91849202006F0C2FBE5E7752BE3
:10360C0016D0762B16D0772B16D0732B16D0722B98
:10361C0016D0712B16D0622B16D06E2B16D01249E9
:10362C00124A2A2B18BF1146202006F094FBDEE725
:10363C002946F9E73146F7E73946F5E70C49F3E750
:10364C000C49F1E70C49EFE70C49EDE70C49EBE7C6
:10365C00534903006C1A03001D1A03002A1A0300B5
:10366C001E1A0300351A0300731A0300701A0300A4
:10367C00411A03004B1A0300561A0300611A030087
:10368C006B1A0300F0B5214A92F87B30184452FAB9
:10369C0080F01F4B90F865C090F866501F78A5EB32
:1036AC000C050026EDB23046F4B2A54225D90CEB40
:1036BC00060313445B7811B10CB92D2B17D0782B62
:1036CC001FD0582B05D108B137240AE0013C012C3E
:1036DC0014D9602B17D8402BF6D83A2B34BF302492
:1036EC0000241B1BDBB29F4203D900FB07300136C1
:1036FC00DAE7052382F879300020F0BD102700208E
:10370C00F5E70028E2D05724EBE700BFCE200020DD
:10371C00AA1A0020094A0023FF21137082F878307E
:10372C0082F8653082F8773082F8793082F87A1036
:10373C0082F87B30024A1360704700BFCE20002015
:10374C00802F0020034B93F8770093F87B30C01A3E
:10375C00C0B27047CE2000200021FFF793BF0000BD
:10376C0010B50A4B93F87B20024453FA82F292F87C
:10377C00652013445C78A4F12D0359425941FFF79D
:10378C0081FF2D2C08BF404210BD00BFCE20002071
:10379C0030B50C4A92F87B300344C043DBB2C00F07
:1037AC0039B1D51895F8664095F86550641B241A04
:1037BC000C7042FA83F393F865301844024B1844AA
:1037CC0030BD00BFCE200020CF200020F7B50E4624
:1037DC000DF1070115461C46FFF7DAFF9DF807307F
:1037EC00AB42074688BF8DF807501CB19DF80740C7
:1037FC002C1BE4B222463046002100F04BFE30195F
:10380C009DF80720394600F0E9FD9DF8070003B04C
:10381C00F0BD38B50C4601230822FFF7D7FF04F1A1
:10382C000803621E043413F8011D12F8015F1D70A9
:10383C00A3421170F7D138BD38B5054601460120B9
:10384C00FFF7B4FED5E901436CB91C46084D23685B
:10385C0063B12946202006F07EFA21460020FFF7AE
:10386C00A5FE0C34F3E71B786E2BEFD038BD00BFF0
:10387C008625030008B50449202006F06CFA2020A8
:10388C00BDE808400DF0B4BADE19030038B5FFF7F7
:10389C00F1FF064D002461190C34631953F80C3CEC
:1038AC0003B938BD0020FFF781FEF4E7A80303003D
:1038BC002DE9F84F1F4B204D53F820201F49202095
:1038CC0006F049FA2B681BB9BDE8F84FFFF7DEBFCD
:1038DC001B4FDFF874A0FFF7CDFF0026B94697F811
:1038EC007B30F4B2013B9C4204DB2868BDE8F84F06
:1038FC00FFF7A2BF47FA86F34C4493F86580002388
:10390C00C84494F8662094F86510521A03F1010B20
:10391C00D2B2DBB2934205D30A49202006F01BFA3F
:10392C000136DCE7434451465A78202006F013FA5E
:10393C005B46E6E7AC1A0020802F0020D919030063
:10394C00CE20002087250300D83503002DE9F74F42
:10395C00824C94F87730002B00F0A380804B1B78BE
:10396C0013F0010F04F101071FD000257D4E14E068
:10397C006319202093F8662093F86530D21A44FA24
:10398C0085F3D2B293F8651039440DF02CFA314618
:10399C00202006F0E0F90135EDB294F87730AB4217
:1039AC00E6D87149202006F0D6F994F877300193C7
:1039BC00DFF8C0E16D4B002671461EF8012B91F823
:1039CC0001C04FF00008ACEB020C07EB020A5FFAE7
:1039DC008CFC45461868002853D00138D14619E0B4
:1039EC002AB9002D4BD04FF001080C33F2E719F82F
:1039FC00011BA1F1410BBBF1190F98BF2031A2F1B2
:103A0C00410B98BFC9B2BBF1190F9CBF2032D2B287
:103A1C008A42EAD1A9EB0A01614510F8012FDFD1E6
:103A2C00002ADED11D46524B1D6094F87B300133C9
:103A3C0084F87B30D5E901230136F6B2002A36D062
:103A4C001B786E2B32D03F2B24D04FF000094F4601
:103A5C004FF0070A4FF0040B5FFA89F0811994F8C4
:103A6C0077C0AA68C9B28C45D35D28D893B11744E6
:103A7C007B782A2B1CBF032384F879300AE01D467F
:103A8C00B3E7B8F1000F01D1002DCCD1022384F89B
:103A9C007930002594F8790000285CD1686800F032
:103AAC002FF903B0BDE8F04FFFF734BE1346019A6F
:103ABC00B24281D8032284F879201D46EAE7732BA1
:103ACC0008D8712B0AD2002B43D0622B30D084F84B
:103ADC0079A016E0A3F17502022AF8D8752B1ED036
:103AEC00762B1FD0732B20D0722B47F6FF7818BF84
:103AFC004FF0FF380121FFF7C5FD404501D984F88F
:103B0C0079B0AB683B4409F101095B782A2B94F836
:103B1C0079301CBF0137FFB2002B9DD0BAE74FF0B4
:103B2C00FF08E7E74FF6FF78E4E74FF07F08E1E79F
:103B3C0094F87B30184454FA80F090F865302344A4
:103B4C005B78222BDDD07B2BDBD0052384F87930FE
:103B5C00D7E70323FAE7FFF7ABFEA2E7CE2000205E
:103B6C004A210020872503001B1A0300A803030029
:103B7C00802F0020332100202DE9F3415E4C5F4F54
:103B8C0006460D464FF0000866B90DF107012846B0
:103B9C000DF022F978B1262800F0A980012384F8D1
:103BAC0079304BE0002D00F0A28016F8013B8DF827
:103BBC000730013DEDB23A789DF807303B700D2A85
:103BCC0001D10A2BE0D00D2B0CD0A3F10A025142EB
:103BDC00514122788846042AD6D8DFE802F0051D28
:103BEC00263C31000121F4E721B1FFF7AFFE4FF085
:103BFC000108C9E7202B63D0222B07D102232370A5
:103C0C0094F87820642A5DD10623C8E77B2B01D178
:103C1C000323F4E70123F2E709B9202BF0D194F840
:103C2C007730112B3FD10323B9E7222BF7D0002992
:103C3C00E6D0052384F879304FF001080423237073
:103C4C00B8F1000FA0D094F8790008B1FFF730FE5E
:103C5C00FFF760FD98E77D2B94F87A0003D1FF28DD
:103C6C00DDD005239BE7602B13D8402B13D8392BC1
:103C7C008CBF002230229A1AD2B20F2A10D8FF28F9
:103C8C000BD002EB0012FF238DF8072084F87A305A
:103C9C00B6E75722EFE73722EDE784F87A2073E78F
:103CAC00202BDED170E70133DBB284F8773023446C
:103CBC0094F8782083F8652000232370002994D190
:103CCC00884661E72378012B09D19DF80730A3F1D1
:103CDC00410119299CBF2033DBB28DF80730A318A2
:103CEC009DF807105970013284F878204CE7404653
:103CFC0002B0BDE8F08100BFCE2000204B21002097
:103D0C0010B5054B0446187800F07AFCA047BDE8C6
:103D1C00104000F07CBC00BF5C2100207FB501A8E6
:103D2C00FDF7DCF901AA0349042001F0B5F807B04E
:103D3C005DF804FB541D03002DE9F04F8DB01822E3
:103D4C00FF230DEB020000218DF80A302BF04DFB08
:103D5C000DF10B014FF0FF30FFF71AFDFFF7DEFFFF
:103D6C0041F202029D49042001F096F804A8FDF7E7
:103D7C0097FC06A90DF10A00FDF798FC0420984960
:103D8C0001F0A6F8042001F073F810B104A800F0BB
:103D9C00F5FF9DF922309DF823209249042001F073
:103DAC007BF81EF00BFB831EDBB2FC2B05462AD8DE
:103DBC008D498E4E8E4FDFF8A482042001F06CF8F2
:103DCC00012422463146042001F082F803A9E0B216
:103DDC001EF09EFA9128024600F09580932800F080
:103DEC009280002840F094809DF90C1000919DF871
:103DFC000E309DF80D207F49042001F04DF8013460
:103E0C00E3B2AB42DDD3BDF82040FDF76BFA22469E
:103E1C0003467949042001F05BF80420774901F04E
:103E2C0057F8042001F024F810B106A800F0A6FF02
:103E3C007349042001F030F823F0D4FB044623F03E
:103E4C00CBFB224603466F49042001F025F8FDF711
:103E5C0047FC6D49042001F03BF89DF80A20FF2A2D
:103E6C005BD06A49042001F033F86549DFF8F08132
:103E7C00042001F011F8FDF725FC654A654903465D
:103E8C00042001F009F81EF00BFA634902460420E5
:103E9C0001F01EF8FDF71CFC0446FDF71FFC224642
:103EAC0003465E49042000F0F7FFFDF767FD5C490F
:103EBC000246042000F0F0FF0025FDF75FFDECB298
:103ECC00A0422FD801225749574C042000F0E4FFA0
:103EDC00002000F095FB554B55490022042000F0C2
:103EEC00DBFF236853B11A785249042000F0D4FF49
:103EFC00236851495A78042000F0CEFF00F087FB6C
:103F0C000DB0BDE8F08F3946042000F0C5FF76E710
:103F1C004146042000F0C0FF71E74849042000F03E
:103F2C00D7FFA2E7464B474F03EB04162046D6F8C3
:103F3C000890FDF789FF82462046FDF725FD0028F5
:103F4C0014BFC346BB462046FDF77EFF02F0B2F815
:103F5C00002814BF404638465B46009052463A490A
:103F6C00DFF800B1042000F0B3FFB1797388327B25
:103F7C000191B18800910420344900F08DFF002696
:103F8C0099F80430F4B2A34201D8013595E7D9F879
:103F9C0000702F482F4914235C4307EB040A3B5B4A
:103FAC009AF90C2011EA220138BF01460A46042076
:103FBC00594600F08DFF042000F05AFF38B15046EE
:103FCC003C5BFDF7FFFC0146204602F0EFF822496E
:103FDC00042000F061FF0136D2E700BF0E1B030086
:103FEC00291B0300551B0300301B0300461B030059
:103FFC006A1B03004D1B0300751B0300931B03007E
:10400C0020FC02009C1B0300BD1B03005B4C030047
:10401C00D01B0300D91B0300E71B0300FB1B030091
:10402C000A1C03007E1C0300582100208A1C03007C
:10403C00981C0300A41C0300B61C0300C81B03003F
:10404C003C2F0020ED1A0300151C0300351C030047
:10405C00021B0300F61A03001D1A0300472D030070
:10406C00E51A0300671C030008B50020FFF774FB7A
:10407C00BDE8084080B200F079BF08B50020FFF71A
:10408C006BFBBDE8084080B200F084BF70B5074DF3
:10409C00074E00240C34631953F80C2C02B970BD74
:1040AC003146042000F0F8FEF4E700BFA80303003B
:1040BC005349030005F030BB08B50020FFF74CFB5B
:1040CC00054B1A7810F0FF0F14BF42F0010222F0DA
:1040DC0001021A7008BD00BF4A2100202DE9F843E7
:1040EC0016F018FF104EDFF84C80DFF84C900746A6
:1040FC000025EBB256F833400CB9BDE8F88358F8FC
:10410C0023204946012000F0E3FE23782BB9074910
:10411C00012000F0C1FE0135EBE762680449D21BB7
:10412C00012000F0B9FEF6E7A8F80200451D0300D7
:10413C004E1D0300641A00203E1D030010B527F02D
:10414C00E3F80D490446012000F0C2FE022C0DD00C
:10415C00032C0DD0012C0DD10849012000F0B8FE24
:10416C0007490120BDE8104000F096BE0549F4E770
:10417C000549F2E70549F0E7CF1C0300EC1C0300EE
:10418C00E54A0300F21C0300011D0300111D03008E
:10419C002DE9F843114EDFF854800025FDF7EEFBB6
:1041AC00ECB2A04201D8BDE8F8832701204616F8EE
:1041BC000790FDF7E9FB0A4B0A49002818BF434654
:1041CC004A46012000F084FEF05DFDF7E6FA064950
:1041DC00012000F061FE0135E0E700BF3C2F00201C
:1041EC00601E0300331D03001D1A0300561E03003E
:1041FC0008B50020FFF7B0FA094B1B681B6819784B
:10420C00A1F1650359425941C0B2FDF7F7FF28B936
:10421C0004490120BDE8084000F03EBE08BD00BFC7
:10422C00802F0020191D030049BA89B24840C0F301
:10423C0003114140080380B24840C3B280EA4310E6
:10424C0070470000014B1878704700BF4C210020CC
:10425C00014B1870704700BF4C2100201AF078BA3F
:10426C0038B5A0F1430305460A2B31D8DFE803F03B
:10427C00060A0A121230303030301100BDE83840D6
:10428C0016F034BA16F0FEF920B116F02FFA002809
:10429C00FBD138BD114C20780028FAD10123443DC4
:1042AC0023700DF01DFA032D0DD8DFE805F006067E
:1042BC00090240F6010016F0FDFD00232370E8E72B
:1042CC0040F60200F7E77A21054804F023FBF4E7F7
:1042DC008C210348BDE8384004F01CBB4D21002064
:1042EC00631D0300704770477047704770477047F5
:1042FC007047704770477047704700207047704791
:10430C007047704700207047704770470020704717
:10431C00704700207047704701207047012070479C
:10432C007047704770477047704770472DE9F047EA
:10433C00204DDFF8A090DFF8A0A000245FFA84F8ED
:10434C0040461EF047F8FF2806460CD122461A4973
:10435C00287805F015FD287801340CF049FD142C53
:10436C00ECD1BDE8F087154B59F82420144947B21D
:10437C0013EA270338BF5346287805F001FD002FB8
:10438C00E9DA14B1B8F1030F08D10E4B0E492878B5
:10439C0016F0010F18BF194605F0F2FC0A2CDAD101
:1043AC000A4B0B49287816F0010F18BF194605F077
:1043BC00E7FCD0E7A91A0020691E03001D1A0300B0
:1043CC00911E03002C1E0300421E0300541E03000A
:1043DC005E1E0300D81D0300DE230300F0B58842E7
:1043EC004FEA92031AD89BB29E00871904460D46D9
:1043FC0004370434BC4205F104053AD1C3EB8333D2
:10440C00314402EB8303013E304411FA83F39942A9
:10441C0020D011F8012B00F8012FF8E7541E20448E
:10442C009BB22144A0EB830604460D46043E043C9B
:10443C00B442A5F104050ED16FF003045C43C3EB49
:10444C00833302EB830321449BB201342044CB1A07
:10445C00994209D1F0BD2F792771EF78E770AF78C9
:10446C00A7706F786770E2E711F8012900F8012D49
:10447C00EEE715F804CC04F804CC15F803CC04F8DA
:10448C0003CC15F802CC04F802CC15F801CC04F8D6
:10449C0001CCAEE70244904200D1704700F8011BFA
:1044AC00F9E710B5013801390AB9104606E010F8E1
:1044BC00014F11F8013F9C4201D0E01A10BD013AA6
:1044CC0092B2F1E710B50A4B00241C70FCF70AFFFE
:1044DC00084B2146188052220748FFF7DBFF074B99
:1044EC0007481C8021460C22BDE81040FFF7D2BFC4
:1044FC00B1210020C22F0020C42F0020B42F002097
:10450C00B62F002007490B88512B9FBF064AD05469
:10451C0001339BB29DBF0B8003F1FF339818002031
:10452C00704700BFB42F0020C42F002038B50546BB
:10453C00C0B2FFF7E7FF0446280AFFF7E3FF14B108
:10454C00002808BF0024204638BD000008B51944D7
:10455C00914209DC0144002063B111F8012D013BAB
:10456C0002EB0020DBB2F7E702201A46024900F00A
:10457C0093FC002008BD00BF861F03000423FFF737
:10458C00E5BF08B50223FFF7E1FF80B208BD0000CC
:10459C0008B58A42034606D8084A0949022000F0A9
:1045AC007BFC084808BD5B5CFF2B08BF00230B4459
:1045BC0093420844F6DB044AEFE700BF9D1F03005B
:1045CC00AE1F030056210020BC1F03000078FF28FB
:1045DC0008BF0020704708B502220021FFF7D1FF69
:1045EC004FF6FF73984208BF002008BD024B034AE8
:1045FC001A600020704700BF58210020F3FF020012
:10460C00002814BF70200020704700207047002045
:10461C0070477047014B1878704700BF3C2F002043
:10462C0008B5FDF74FFBFF280CBFFF20002008BD8D
:10463C0008B5FFF7F5FFFF280CBFA320002008BD2D
:10464C00002303707047FCF75CB810B504461822C1
:10465C000021FFF71FFF2046FEF7E2FC0020FFF7CA
:10466C007BF8E0720120FFF77BF8A0720220FFF7C5
:10467C0073F82081FFF766F8032808D90320FFF7A9
:10468C006BF8E37A03F01F0343EA4010E07210BDAD
:10469C007FB56846182200212AF0A7FE6846FFF76E
:1046AC00D4FF6846FCF7F8FC044A0549034604208D
:1046BC0000F0F2FB07B05DF804FB00BF474E0300AF
:1046CC007C20030010B50020FFF746F8041C4FF0C7
:1046DC00010018BF0124FFF73FF80849A222002867
:1046EC0018BF014620461FF021FE054A0549034626
:1046FC00BDE81040042000F0CFBB00BF00F8FF075E
:10470C00741303007C20030070B50020FFF724F81D
:10471C0004460120FFF720F805460220FFF71CF89D
:10472C00E4B2C2B2201C294618BF01201FF057FE6C
:10473C00034A04490346BDE87040042000F0ACBBBA
:10474C00C82003007C2003000149042000F0A4BB16
:10475C001C20030008B50C490020FFF75AF80A4842
:10476C00FEF7A4FC0420094900F0B2FB042000F081
:10477C007FFB10B1044800F001FB05490420BDE8A3
:10478C00084000F089BB00BFA72100200E200300C9
:10479C001D1A030010B521F021F9044A04490346FF
:1047AC00BDE81040042000F077BB00BF4A130300A3
:1047BC007C20030010B50020FEF7CEFF002104463C
:1047CC004FF0FF30FEF7E4FF0178A1F1620359428C
:1047DC00E0B25941BDE81040FCF718BA08B5FEF735
:1047EC0067FC03490246BDE80840012000F054BBB9
:1047FC00CB1F030008B5FEF709FC03490246BDE8D0
:10480C000840012000F048BBDF1F030010B500205A
:10481C00FEF7A2FF0121C4B2A1400023FE224FF6F5
:10482C00FF7026F05BF92246034603490420BDE8DD
:10483C00104000F031BB00BFF11F030007B502A808
:10484C00032320F8043D20F0D5FA04490246042045
:10485C0000F022FB03B05DF804FB00BF60200300F6
:10486C0008B50020FEF778FFC0B228B1044901203A
:10487C00BDE8084000F010BB024B187008BD00BF2B
:10488C00DD2003005C21002007B56846FCF708FF1B
:10489C00FCF728FD08490246012000F019FB684688
:1048AC0000F06CFAFCF720FD04490246012000F0F0
:1048BC00F3FA03B05DF804FB37200300502003002B
:1048CC0073B50020FEF748FFC4B20120FEF744FF89
:1048DC00C5B20220FEF744FF46B2FEF733FF0328B1
:1048EC0012D90320FEF738FFC0B2009033462A4697
:1048FC002146012029F092FE40B90949012002B05D
:10490C00BDE8704000F0C8BA0020EEE70090054BFF
:10491C00054A0649012000F0BFFA02B070BD00BF85
:10492C00842003008C2003005A130300A0200300F2
:10493C0007B5012029F074FE034638B9084A094925
:10494C00012003B05DF804EB00F0A6BA0090044B14
:10495C00054A0649012000F09FFA03B05DF804FBFC
:10496C008C200300B520030040180300A020030096
:10497C0037B5037813F0050F04460CD04388062B8B
:10498C0014D18268838852681449127800920420EA
:10499C00134A00F081FA2378012B1DD0104A1149DB
:1049AC00042003B0BDE8304000F076BA2BB9828801
:1049BC000D49042000F070FAEDE7012BEBD185686E
:1049CC000A49042000F084FA284600F0D7F9084977
:1049DC00042000F061FADEE703B030BD08210300CB
:1049EC00AD170300582103002421030040210300CC
:1049FC001D1A0300094B1B681B681B78652B084BA1
:104A0C000CBF012200221A701978064A064B0420AA
:104A1C00002908BF1A46054900F03EBA802F002035
:104A2C00A81A0020F9120300F11203008B220300D4
:104A3C00FEF733BB37B50020FEF78EFE054601208E
:104A4C00FEF78AFE054B1C88054B009382B20123AE
:104A5C00A9B2204600F0F5FF03B030BD701B00205A
:104A6C007D4900002DE9F04F91B0384D384FDFF8FB
:104A7C00F480DFF8F4900FCD0BAC0FC42B683549E4
:104A8C002360042000F008FA00263446FCF71EFED2
:104A9C00F5B2A8420AD8FCF719FE224603462E4965
:104AAC00042000F0F9F911B0BDE8F08F07A92846F1
:104ABC0015F030FF0246002842D19DF81C30032B24
:104ACC0084BF04238DF81C309DF81C30002B35D08E
:104ADC002A464146042000F0FBF99DF81C3010AA30
:104AEC0002EB8303494653F8142C042000F0F0F930
:104AFC009DF82030BDF81E209DF829A09DF81DB012
:104B0C0005932846049215F0FDFE049A059B02902D
:104B1C000192009304205B4652461049013400F088
:104B2C00D7F90420E4B200F0A3F918B10DF121007B
:104B3C0000F024F90A49042000F0AEF90136A5E78B
:104B4C003946042000F0A8F9F8E700BFF420030070
:104B5C00B82103006A210300D82103009721030028
:104B6C001D1A0300481B03005349030016F0CAB872
:104B7C0008B50020FEF7F0FDBDE80840C0B2FCF718
:104B8C00EBBB0000084B1B681B685B78652B02D1E4
:104B9C00002001F097BB6E2B01D10120F9E7662BA9
:104BAC0001D10220F5E77047802F0020054B1B68D0
:104BBC001B685B78A3F1660253425341024A13709F
:104BCC00704700BF802F0020981B002010B586B0C6
:104BDC000020FEF7C1FD694604460120FEF719FED0
:104BEC000123102202A90220FEF7F0FDE1B202AB74
:104BFC006A46002019F014F80446042000F038F935
:104C0C0018B121460448FBF7E3FF0449042000F0E7
:104C1C0043F906B010BD00BF7E2203001D1A03002D
:104C2C0010B58CB007A9002312220220FEF7CEFD8E
:104C3C0003AA014607A8FCF7B5FD044688B1BD28B8
:104C4C0004D11449042000F027F908E0022801D10E
:104C5C001149F7E702461149042000F01DF90CB088
:104C6C0010BD01A90120FEF7D4FD2046FEF774FD0E
:104C7C0003ABC1B201AA204618F0D2FF04460420AF
:104C8C0000F0F6F818B121460548FBF7A1FF0549DD
:104C9C00D8E700BF01220300242203005F22030097
:104CAC007E2203001D1A03007FB50020FEF754FD81
:104CBC0004460220FEF750FDC6B23046FFF7B8FCA2
:104CCC00E4B20546E8B901208DF80000FEF744FD7A
:104CDC00ADF8020003208DF80160FEF73DFD0DF1EB
:104CEC0005018DF804000420FEF793FD18F0DDFE9D
:104CFC0069468DF80D00204615F08EFE0546FFF72F
:104D0C0086FC2B4622460349042000F0C5F804B06B
:104D1C0070BD00BFEF210300F8B506460C461546E2
:104D2C001F4600F0A5F818B1013C2544AC4200D157
:104D3C00F8BD14F8012F3946304600F0C9F8F5E7F4
:104D4C0030B4044D044C002B14BF2B46234630BC0E
:104D5C00FFF7E2BFB3220300F42C030070B5054645
:104D6C0008460C46FFF732FC611C82B2024B284607
:104D7C00BDE87040FFF7D0BFD835030000B589B04F
:104D8C0002460C49C379088811780691517805912F
:104D9C0091780491D1780391117902915179019113
:104DAC009279009204493E2200F092F809B05DF825
:104DBC0004FB00BF5E210020B72203002DE9F04761
:104DCC00104EDFF850A0104F05468846914600243F
:104DDC00AC4201D1BDE8F08708EBC40130885346E2
:104DEC000822FFF799FF01343088B9F1000F07D181
:104DFC00064AA54208BF3A46054900F069F8E7E7BC
:104E0C003A46F9E75E2100201B1A03001D1A030025
:104E1C0052490300B3220300014600220220FFF78F
:104E2C00CDBF00002DE9F0410E4C0646208800F065
:104E3C001FF8A8B10C4FDFF834800025F3070AD512
:104E4C0018B94146208800F043F820882A46394694
:104E5C0000F03EF8002001351B2D4FEA5606EDD12F
:104E6C00BDE8F0815E21002027350300B6FB02006F
:104E7C004FF6FF73984208D0030A08D1054B1B78F4
:104E8C00034214BF0120002070470120704700200E
:104E9C00704700BF721B00200EB417B505AA04465C
:104EAC0052F8041B0192FFF7E3FF40B1202004F0FD
:104EBC007AFF0549202004F04EFF044B1C8003B000
:104ECC00BDE8104003B070471B1A03005E210020A0
:104EDC000EB417B505AA044652F8041B0192FFF74D
:104EEC00C7FF20B1202004F05EFF034B1C8003B0F1
:104EFC00BDE8104003B070475E210020F7B50F4F9E
:104F0C000F4E104D00240120A04080B257F82420F1
:104F1C00FFF7AEFF002814BF30462846134600901A
:104F2C0022460949202004F02BFF013420200BF0ED
:104F3C005FFF082CE7D103B0F0BD00BFCC2203000B
:104F4C00F0220300F4220300F72203000122FF21C8
:104F5C000148FFF79FBA00BF721B002001220021FD
:104F6C000148FFF797BA00BF721B002043010122D2
:104F7C0000F0070002FA00F003F47F4303449BB2F5
:104F8C001A0A01BF02490A7813430B70704700BF1D
:104F9C00721B00204301012200F0070002FA00F00E
:104FAC0003F47F4303449BB21A0A01BF02490A78F7
:104FBC0022EA03030B707047721B002013B50368C1
:104FCC000446587901F076F888B923685A88032A80
:104FDC000DD0E17C5B790120CDE900210849094A1B
:104FEC00FFF75AFF0121204601F063FA05E0204645
:104FFC00FDF782FF01460028F5D1012002B010BD5B
:10500C0059230300F11203002DE9F04F8BB0C27C41
:10501C000592427D03688668B0F80CB090F8149045
:10502C005F88002A14BF80224022054658790692D8
:10503C0001F040F8C0B9059B052B04D8059A2D2327
:10504C00D340DB0710D4032F0ED0AF490120FFF75C
:10505C0023FFAE49059BAE4A0220FFF71DFF01213D
:10506C00284601F026FA4BE1EB7B1BB12A8A002A79
:10507C0000F04282A74A00211180697D00299046E8
:10508C0014BF002008200BB140F00400FFF73AFADF
:10509C00EB7B13B1288AFFF749FAA87CFFF732FAA9
:1050AC00059B1FFA89F4162B00F22082DFE813F01F
:1050BC0017003A015B00480075015B0022017E017C
:1050CC003601870190019901F300AF011E021E0207
:1050DC001E02C501EE01C5010602F300AF0101205D
:1050EC00FFF710FA631C5B4502DB01F095F907E151
:1050FC005A4621463046FFF744FA2B6881465879C8
:10510C00B8F80030C3F152039BB201932B8A009381
:10511C004A46069B3946FCF7CCFB70B92B6858798C
:10512C00B8F80030C3F152039BB201932B8A009361
:10513C004A46069B3946FDF73FFBA21C94B2D1E7C9
:10514C000420FFF7DFF94FF00009A31C5B4520DBBF
:10515C00B9F1000FC9D1EB7B2C7D002B6D4B0CBF33
:10516C00022204221A800420FFF7CCF94FF0000A27
:10517C00D04604F10309CB454DDC059B052B00F013
:10518C00BF80B8F1000FB0D1BAF1000F7FD18021F0
:10519C0066E75A4621463046FFF7F3F93319079074
:1051AC0093F802A05046FCF7F9FB68B3E01C3044BE
:1051BC00FFF70CFA01305FFA80F85046FCF7EEFB73
:1051CC0028B108EB0403ABEB0303032B21D42B68AE
:1051DC005879CDF808A0E31C334401932B8A009333
:1051EC003946DDE90632FDF72CFA40B109F1010927
:1051FC00FFF788F907985FFA89F9FFF797F908F133
:10520C000302224494B2A0E75046FCF763FB8046AD
:10521C00D3E78020EAE75A4621463046FFF7B1F93A
:10522C00331908909B7807931846FCF7B7FB06EBED
:10523C0009030993E0B11846FFF7C8F901305FFA8A
:10524C0080F92B68089A5879079B0293099B019364
:10525C002B8A00933946069BFDF7ABF968B90AF126
:10526C0001035FFA83FA09F10302224494B280E746
:10527C000798FCF72FFB8146E3E708F101035FFA7F
:10528C0083F8FFF73FF90898FFF750F9EBE7404632
:10529C00FFF738F929E7059B0C2B14BF16200D20BE
:1052AC00FFF730F9214630465A46FFF76AF9059B5D
:1052BC004E44152B8246B47802D1132C28BF1324EC
:1052CC000020B8F80060FFF71DF92B685879059B92
:1052DC00A3F1150CDCF1000343EB0C03CDE9014306
:1052EC002B8A00935246069B3946FDF723F80A4B4E
:1052FC009855FAE62846FDF77FFE002800F0F68068
:10530C0001200BB0BDE8F08FED1A030083230300DE
:10531C00F1120300B42F0020C42F00202846FDF703
:10532C00B9FEEAE70A2F06EB09082BD1DFF8D4A166
:10533C009AF8003033B3EB7B23BBABEB0909B9F123
:10534C00080F1FD15A4621463046FFF71AF9C8B943
:10535C0098F80290B9F1000F14D198F80330E22BB1
:10536C0010D1211D5A4689B23046FFF707F900F0DB
:10537C00D9FD00F0D9FD614902460220FFF78CFDF2
:10538C008AF80090ABEB040292B241463846FCF727
:10539C009DFA0028B4D1002162E6ABEB040292B274
:1053AC0006EB0901384609F061F9F2E7ABEB0402B0
:1053BC0092B206EB0901384609F0A4F9E9E7ABEB28
:1053CC00040292B206EB0901384609F0A1F9E0E7B4
:1053DC00ABEB040292B206EB09013846FCF778FA03
:1053EC00D7E701342B6816F8098058792B8AA4B2B8
:1053FC004246345D0193069B009339462346FCF7E5
:10540C0027FE22464146384609F08EF978E7059B7F
:10541C0016F80910A3F11600621C434292B24341E4
:10542C00ABEB020B0031009332441FFA8BF318BF25
:10543C000121384609F09AF9ABE7059B16F809A04B
:10544C004E44112B96F801901BD11220FFF75AF8FD
:10545C000020B8F800402A4ECDF80480C4F1510267
:10546C0092B2631C00923344CDE902A93A46294614
:10547C00FCF70AFFB8F8003030550133A8F80030BB
:10548C0033E61420FFF73EF80120E2E716F8092076
:10549C000134A4B2003206EB0403ABEB040418BFD6
:1054AC000122A4B20021C8B2844201F10101FAD850
:1054BC00298A00943846FDF7A3FD6AE716F80920FF
:1054CC000134A4B2003206EB0403ABEB040418BFA6
:1054DC000122A4B20021C8B2844201F10101FAD820
:1054EC00298A00943846FDF789FD52E7EB7B002BA7
:1054FC000CBF82218421B3E58421B1E59F230300F5
:10550C00C42F00206021002082B2074B42B11A80C8
:10551C00000C064B0ABF4FF6CE2218801A8070473B
:10552C004BF6EF62F3E700BF741B0020761B0020E4
:10553C00094B1888020448BF80F0620042001A80B0
:10554C00064A1388190444BF83F4805383F00B0379
:10555C005900118058407047741B0020761B0020A6
:10556C00034B1870034B1970034B00221A707047D1
:10557C0062210020612100206321002013B50C4B17
:10558C001B681B681B78672B04D101A817F0A6FBBE
:10559C0002B010BD0020FEF7DFF804460120FEF734
:1055AC00DBF801A9ADF80400204617F067FBEFE724
:1055BC00802F002038B51CF073FE30B10C4A0D4919
:1055CC000120BDE83840FFF767BC0B4B0B4C1B6848
:1055DC000B491B681D7810226C2D18BF2146012326
:1055EC00FEF7F4F807490220BDE83840FFF754BC39
:1055FC00A7FB0200B7230300802F0020781B00209C
:10560C00881B0020CD2303002DE9F0478AB0074604
:10561C00A0B9FCF759F806462649DFF8A080DFF858
:10562C00A090DFF8A0A00120FFF736FC00252C4647
:10563C00B44205D328460AB0BDE8F0870126EBE753
:10564C0069462FB1012016F07DFC60B3FE2403E007
:10565C00204618F0E1FA10B10134E4B2E8E7224632
:10566C0051460120FFF734FC0120FFF701FC18B173
:10567C000DF11D00FFF782FB069A41460120FFF752
:10568C0027FCBDF8003013F0100F14BF79226E22E6
:10569C0049460120FFF71CFC01350DF10300FFF713
:1056AC00BBFBEDB2D8E704490120FFF711FCFE2447
:1056BC00DAE700BF2F2503008225030064250300D1
:1056CC006C2503007A250300F0B589B01D491E4DE9
:1056DC001E4E1F4F0120FFF7DFFB6946002017F01D
:1056EC00ABFE002410B1204609B0F0BD01202246CB
:1056FC002946FFF7EDFB0120FFF7BAFB10B1684616
:10570C00FFF73CFB069A31460120FFF7E1FBBDF8A1
:10571C001E2039460120FFF7DBFBBDF81C200D498C
:10572C000120FFF7D5FB013402A8FFF775FBE4B2AB
:10573C0009490120FFF7B0FB6946204617F07CFEB3
:10574C00D0E700BF892503007A25030064250300F8
:10575C00C5250300CC2503001D1A030000B58BB032
:10576C006946012016F0EEFB18B905980BB05DF8F0
:10577C0004FB4FF0FF30F9E710B58CB002A817F01E
:10578C00ADFA38B9BDF80830DB0703D42F49012036
:10579C00FFF782FB02A9032016F0D4FB20B12822CC
:1057AC00FF2102A8FEF776FE079B294A2949012012
:1057BC00FFF772FB9DF82430254A27490120FFF79B
:1057CC006BFB234A25490120FFF782FB0DF10B00EF
:1057DC00FFF722FBFFF7C2FF214A1E4903460120B7
:1057EC00FFF75AFB1E4A1F490120FFF755FB01200A
:1057FC00FFF70AFF1A4A1C490120FFF74DFB002056
:10580C00FFF702FF0446FBF75FFF224603461749EA
:10581C000120FFF741FB164A13490120FFF73CFB1F
:10582C00FFF752FF1349144B012898BF0B4613493D
:10583C00CDE900030246124B4FF0010088BF0B4626
:10584C001049FFF729FB0CB010BD00BF76240300F4
:10585C00AE240300B6240300C5240300E129030091
:10586C000D540300D6240300DC240300E5240300BC
:10587C00F92403001D1A0300611D030072240300A8
:10588C00871403000725030010B50020FDF764FF03
:10589C000446003018BF01201FF08EFE054A064B4F
:1058AC000649002C08BF1A460120BDE81040FFF73E
:1058BC00F3BA00BFD5230300DA230300E32303006C
:1058CC0008B50020FDF748FF044B0549188082B24B
:1058DC00BDE808400120FFF7DFBA00BF981F002089
:1058EC002424030008B50020FDF736FF034B187085
:1058FC000120FDF731FF024B187008BD5421002028
:10590C005C1B002038B5012505704FF6FB75A942CC
:10591C0098BF6FEA43439DF81040847298BF6FEABA
:10592C00534303814260064BC07A082103EBC0004D
:10593C00FEF789FE0420BDE83840FDF751BB00BFDF
:10594C00183000200948037873B9094A1946D372F4
:10595C000133042B1173117051601181917202F19A
:10596C001002F4D101230370704700BFA421002062
:10597C006421002038B5FFF7E5FF094D002418F02D
:10598C0094F8204400012B5C2BB918F08EF82044BD
:10599C0005EB001038BD0134042CF0D10020F9E7E0
:1059AC006421002030B585B00546007BFEF728FE4B
:1059BC00174BE87A002403EBC0002C70FEF740FE76
:1059CC0018F073F8134B00B203EB001320460201DE
:1059DC009A5C22B901300428F9D1FDF764FB69689F
:1059EC0091B12B8943F38132C3F30E03ADF806302A
:1059FC004FF6FF7302F00202ADF8083000238DF869
:105A0C000420039301A88847FEF701FE05B030BDC2
:105A1C00183000206421002038B50446436808463D
:105A2C000D469847B4F90830002B02DB2B78042B79
:105A3C0006D1002363602046BDE83840FFF7B2BFB3
:105A4C0038BD2DE9F34104460D4617469846FFF73D
:105A5C0091FF0646D8B14FF6FB724FF6FD73944298
:105A6C0088BF1C46294643463A46204600F0A6F914
:105A7C00054602F09BF835B900900623089A21469A
:105A8C003046FFF73FFF284602B0BDE8F081702595
:105A9C00F9E7F7B506460C461746FFF76BFF0546C8
:105AAC0098B121464FF48A52304602F09FF80446D2
:105ABC0002F07CF834B9009004233A46314628466B
:105ACC00FFF720FF204603B0F0BD7024FAE7F7B5CE
:105ADC0006460F46FFF74EFF054698B100224023BD
:105AEC001146304624F0F1FF044625F0D3F834B9C2
:105AFC00009001233A4631462846FFF703FF204623
:105B0C0003B0F0BD7024FAE773B504460E46FFF7F8
:105B1C0031FF054698B100222046114625F080F849
:105B2C00044625F0B7F83CB90090234632464FF6B0
:105B3C00FC712846FFF7E6FE204602B070BD7024CB
:105B4C00FAE7000038B5002404700546FFF7FAFEAA
:105B5C000D4B9D420BD003F1080295420ED003F180
:105B6C00100295420CD018339D420BD10324074BE5
:105B7C0003EB0410BDE83840FFF714BF0124F6E72F
:105B8C000224F4E738BD00BF183000206421002047
:105B9C002DE9F0479CB014461D4692F800A00F4624
:105BAC0017F083FF8146FFF7CDFE83480A221023AE
:105BBC0013FB09230344002280461978514506D172
:105BCC0013F80A6C1EB1398839B100268EE0013207
:105BDC00042A03F11003F0D1F7E791447B8808EB1A
:105BEC0009173A8942F400408342EED161780029CA
:105BFC007CD1A3F50043062BE7D801A151F823F083
:105C0C00475D0000475D0000D75B0000D75B0000DC
:105C1C00295C0000855D0000015D0000E179A3793D
